{
  "transactions": [
    {
      "hash": "0xa67016151aa9a3fe3a30b3784273a1c37cc00181658c216d60ae6fa339263a88",
      "transactionType": "CALL",
      "contractName": null,
      "contractAddress": "0xf9ec7ad2cc989fed66b30f5ae2efe26199dd6ecc",
      "function": "addTokenToWhitelist(address)",
      "arguments": [
        "0xd4696912E308143DbcE647c9c514d63b9b54Effe"
      ],
      "transaction": {
        "from": "0xf5b7320f984651bcb68efe22ba33941eefb6a37f",
        "to": "0xf9ec7ad2cc989fed66b30f5ae2efe26199dd6ecc",
        "gas": "0x1097e",
        "value": "0x0",
        "input": "0xd84c1b38000000000000000000000000d4696912e308143dbce647c9c514d63b9b54effe",
        "nonce": "0x7",
        "chainId": "0xaa36a7"
      },
      "additionalContracts": [],
      "isFixedGasLimit": false
    }
  ],
  "receipts": [
    {
      "status": "0x1",
      "cumulativeGasUsed": "0xf322eb",
      "logs": [],
      "logsBloom": "0x00000000000000000000000000000000000000000000000000000000000000000000000000000000000000000000000000000000000000000000000000000000000000000000000000000000000000000000000000000000000000000000000000000000000000000000000000000000000000000000000000000000000000000000000000000000000000000000000000000000000000000000000000000000000000000000000000000000000000000000000000000000000000000000000000000000000000000000000000000000000000000000000000000000000000000000000000000000000000000000000000000000000000000000000000000000",
      "type": "0x2",
      "transactionHash": "0xa67016151aa9a3fe3a30b3784273a1c37cc00181658c216d60ae6fa339263a88",
      "transactionIndex": "0xa8",
      "blockHash": "0xe962de4335389e579b6562f07eba7f89f5ba77d9bd007599839d7ed511b5a2be",
      "blockNumber": "0x8865f0",
      "gasUsed": "0xb589",
      "effectiveGasPrice": "0x1447eb2b",
      "from": "0xf5b7320f984651bcb68efe22ba33941eefb6a37f",
      "to": "0xf9ec7ad2cc989fed66b30f5ae2efe26199dd6ecc",
      "contractAddress": null
    }
  ],
  "libraries": [],
  "pending": [],
  "returns": {},
  "timestamp": 1754648893,
  "chain": 11155111,
  "commit": "555bf71"
}