{
  "transactions": [
    {
      "hash": "0xd7f048a24fad9fc9f792f8a40bd05cc1a3336b1a962a37c01e5c5643e1e4c8a2",
      "transactionType": "CALL",
      "contractName": null,
      "contractAddress": "0x27b9d8840a771ab2910acacce970ab636983eebb",
      "function": "addTokenToWhitelist(address)",
      "arguments": [
        "0xd4696912E308143DbcE647c9c514d63b9b54Effe"
      ],
      "transaction": {
        "from": "0xf5b7320f984651bcb68efe22ba33941eefb6a37f",
        "to": "0x27b9d8840a771ab2910acacce970ab636983eebb",
        "gas": "0x1097e",
        "value": "0x0",
        "input": "0xd84c1b38000000000000000000000000d4696912e308143dbce647c9c514d63b9b54effe",
        "nonce": "0x14",
        "chainId": "0xaa36a7"
      },
      "additionalContracts": [],
      "isFixedGasLimit": false
    }
  ],
  "receipts": [
    {
      "status": "0x1",
      "cumulativeGasUsed": "0xf64528",
      "logs": [],
      "logsBloom": "0x00000000000000000000000000000000000000000000000000000000000000000000000000000000000000000000000000000000000000000000000000000000000000000000000000000000000000000000000000000000000000000000000000000000000000000000000000000000000000000000000000000000000000000000000000000000000000000000000000000000000000000000000000000000000000000000000000000000000000000000000000000000000000000000000000000000000000000000000000000000000000000000000000000000000000000000000000000000000000000000000000000000000000000000000000000000",
      "type": "0x2",
      "transactionHash": "0xd7f048a24fad9fc9f792f8a40bd05cc1a3336b1a962a37c01e5c5643e1e4c8a2",
      "transactionIndex": "0x96",
      "blockHash": "0x82a4aeda353a97e88d1764f000b0335ff10f4f35a9a4e12dc0d06ba29e1c5406",
      "blockNumber": "0x886bed",
      "gasUsed": "0xb589",
      "effectiveGasPrice": "0x3e3908",
      "from": "0xf5b7320f984651bcb68efe22ba33941eefb6a37f",
      "to": "0x27b9d8840a771ab2910acacce970ab636983eebb",
      "contractAddress": null
    }
  ],
  "libraries": [],
  "pending": [],
  "returns": {},
  "timestamp": 1754667350,
  "chain": 11155111,
  "commit": "555bf71"
}