{
  "transactions": [
    {
      "hash": "0x2b92ecc7ef0c56d2a9dd17762be2c1c16d9747979c69547969508fa68bb0547e",
      "transactionType": "CALL",
      "contractName": null,
      "contractAddress": "0x4377e5fd750d4d7262fb7de0f99ed263d9108b50",
      "function": "addTokenToWhitelist(address)",
      "arguments": [
        "0xd4696912E308143DbcE647c9c514d63b9b54Effe"
      ],
      "transaction": {
        "from": "0xf5b7320f984651bcb68efe22ba33941eefb6a37f",
        "to": "0x4377e5fd750d4d7262fb7de0f99ed263d9108b50",
        "gas": "0x1097e",
        "value": "0x0",
        "input": "0xd84c1b38000000000000000000000000d4696912e308143dbce647c9c514d63b9b54effe",
        "nonce": "0x11",
        "chainId": "0xaa36a7"
      },
      "additionalContracts": [],
      "isFixedGasLimit": false
    }
  ],
  "receipts": [
    {
      "status": "0x1",
      "cumulativeGasUsed": "0x11482d2",
      "logs": [],
      "logsBloom": "0x00000000000000000000000000000000000000000000000000000000000000000000000000000000000000000000000000000000000000000000000000000000000000000000000000000000000000000000000000000000000000000000000000000000000000000000000000000000000000000000000000000000000000000000000000000000000000000000000000000000000000000000000000000000000000000000000000000000000000000000000000000000000000000000000000000000000000000000000000000000000000000000000000000000000000000000000000000000000000000000000000000000000000000000000000000000",
      "type": "0x2",
      "transactionHash": "0x2b92ecc7ef0c56d2a9dd17762be2c1c16d9747979c69547969508fa68bb0547e",
      "transactionIndex": "0x8b",
      "blockHash": "0x687946715391ea61d9719737f2c701b01f22f4558740befc7857b33e9ea395e3",
      "blockNumber": "0x886b84",
      "gasUsed": "0xb589",
      "effectiveGasPrice": "0x8e2864",
      "from": "0xf5b7320f984651bcb68efe22ba33941eefb6a37f",
      "to": "0x4377e5fd750d4d7262fb7de0f99ed263d9108b50",
      "contractAddress": null
    }
  ],
  "libraries": [],
  "pending": [],
  "returns": {},
  "timestamp": 1754666087,
  "chain": 11155111,
  "commit": "555bf71"
}