{
  "transactions": [
    {
      "hash": "0x201ae5c9812eebf333eb56250cf336dbf396b47a47f29ff8a350af9dc17c4a97",
      "transactionType": "CALL",
      "contractName": null,
      "contractAddress": "0x6d34e425dc7f531b58aa8446b1e2c92dfe9ef965",
      "function": "addTokenToWhitelist(address)",
      "arguments": [
        "0xd4696912E308143DbcE647c9c514d63b9b54Effe"
      ],
      "transaction": {
        "from": "0xf5b7320f984651bcb68efe22ba33941eefb6a37f",
        "to": "0x6d34e425dc7f531b58aa8446b1e2c92dfe9ef965",
        "gas": "0x1097e",
        "value": "0x0",
        "input": "0xd84c1b38000000000000000000000000d4696912e308143dbce647c9c514d63b9b54effe",
        "nonce": "0x37",
        "chainId": "0xaa36a7"
      },
      "additionalContracts": [],
      "isFixedGasLimit": false
    }
  ],
  "receipts": [
    {
      "status": "0x1",
      "cumulativeGasUsed": "0x11d364e",
      "logs": [],
      "logsBloom": "0x00000000000000000000000000000000000000000000000000000000000000000000000000000000000000000000000000000000000000000000000000000000000000000000000000000000000000000000000000000000000000000000000000000000000000000000000000000000000000000000000000000000000000000000000000000000000000000000000000000000000000000000000000000000000000000000000000000000000000000000000000000000000000000000000000000000000000000000000000000000000000000000000000000000000000000000000000000000000000000000000000000000000000000000000000000000",
      "type": "0x2",
      "transactionHash": "0x201ae5c9812eebf333eb56250cf336dbf396b47a47f29ff8a350af9dc17c4a97",
      "transactionIndex": "0xa6",
      "blockHash": "0xf66191432a45ce2022b7397124b2065d48afcfd11e47087272742e367a27a9fd",
      "blockNumber": "0x89ed56",
      "gasUsed": "0xb589",
      "effectiveGasPrice": "0x145ce00",
      "from": "0xf5b7320f984651bcb68efe22ba33941eefb6a37f",
      "to": "0x6d34e425dc7f531b58aa8446b1e2c92dfe9ef965",
      "contractAddress": null
    }
  ],
  "libraries": [],
  "pending": [],
  "returns": {},
  "timestamp": 1755860343,
  "chain": 11155111,
  "commit": "2e4fbda"
}