{
  "transactions": [
    {
      "hash": "0x11b5e6e529c5f44eec80b168a0fd6efcc8448f0f5935dad3a75661679d60f11e",
      "transactionType": "CALL",
      "contractName": null,
      "contractAddress": "0x8cd4b932a570984b0a2a6c0a5a591046f70c8ba4",
      "function": "addTokenToWhitelist(address)",
      "arguments": [
        "0xd4696912E308143DbcE647c9c514d63b9b54Effe"
      ],
      "transaction": {
        "from": "0xf5b7320f984651bcb68efe22ba33941eefb6a37f",
        "to": "0x8cd4b932a570984b0a2a6c0a5a591046f70c8ba4",
        "gas": "0x1097e",
        "value": "0x0",
        "input": "0xd84c1b38000000000000000000000000d4696912e308143dbce647c9c514d63b9b54effe",
        "nonce": "0xa",
        "chainId": "0xaa36a7"
      },
      "additionalContracts": [],
      "isFixedGasLimit": false
    }
  ],
  "receipts": [
    {
      "status": "0x1",
      "cumulativeGasUsed": "0xe5b7c4",
      "logs": [],
      "logsBloom": "0x00000000000000000000000000000000000000000000000000000000000000000000000000000000000000000000000000000000000000000000000000000000000000000000000000000000000000000000000000000000000000000000000000000000000000000000000000000000000000000000000000000000000000000000000000000000000000000000000000000000000000000000000000000000000000000000000000000000000000000000000000000000000000000000000000000000000000000000000000000000000000000000000000000000000000000000000000000000000000000000000000000000000000000000000000000000",
      "type": "0x2",
      "transactionHash": "0x11b5e6e529c5f44eec80b168a0fd6efcc8448f0f5935dad3a75661679d60f11e",
      "transactionIndex": "0xab",
      "blockHash": "0xcb812f7046e8982b12ac9f8581f6effcea172686f6e045b137d561841f539b48",
      "blockNumber": "0x886651",
      "gasUsed": "0xb589",
      "effectiveGasPrice": "0x15e42eed",
      "from": "0xf5b7320f984651bcb68efe22ba33941eefb6a37f",
      "to": "0x8cd4b932a570984b0a2a6c0a5a591046f70c8ba4",
      "contractAddress": null
    }
  ],
  "libraries": [],
  "pending": [],
  "returns": {},
  "timestamp": 1754650058,
  "chain": 11155111,
  "commit": "555bf71"
}