{
  "transactions": [
    {
      "hash": "0x3622e70f2ab001e63000db5f29f2e8aa5d02a8e2c8e8edd5a8a7dfe5213bcd79",
      "transactionType": "CALL",
      "contractName": null,
      "contractAddress": "0xd86aad8db6433d1010301463916d6e1da25e6b89",
      "function": "addTokenToWhitelist(address)",
      "arguments": [
        "0xd4696912E308143DbcE647c9c514d63b9b54Effe"
      ],
      "transaction": {
        "from": "0xf5b7320f984651bcb68efe22ba33941eefb6a37f",
        "to": "0xd86aad8db6433d1010301463916d6e1da25e6b89",
        "gas": "0x1097e",
        "value": "0x0",
        "input": "0xd84c1b38000000000000000000000000d4696912e308143dbce647c9c514d63b9b54effe",
        "nonce": "0x22",
        "chainId": "0xaa36a7"
      },
      "additionalContracts": [],
      "isFixedGasLimit": false
    }
  ],
  "receipts": [
    {
      "status": "0x1",
      "cumulativeGasUsed": "0xdf5714",
      "logs": [],
      "logsBloom": "0x00000000000000000000000000000000000000000000000000000000000000000000000000000000000000000000000000000000000000000000000000000000000000000000000000000000000000000000000000000000000000000000000000000000000000000000000000000000000000000000000000000000000000000000000000000000000000000000000000000000000000000000000000000000000000000000000000000000000000000000000000000000000000000000000000000000000000000000000000000000000000000000000000000000000000000000000000000000000000000000000000000000000000000000000000000000",
      "type": "0x2",
      "transactionHash": "0x3622e70f2ab001e63000db5f29f2e8aa5d02a8e2c8e8edd5a8a7dfe5213bcd79",
      "transactionIndex": "0x7a",
      "blockHash": "0xad079e79bc37417bc2a2c800bf38537228b5efa33f6b49502d25c925821ba6aa",
      "blockNumber": "0x887f3d",
      "gasUsed": "0xb589",
      "effectiveGasPrice": "0x181e43",
      "from": "0xf5b7320f984651bcb68efe22ba33941eefb6a37f",
      "to": "0xd86aad8db6433d1010301463916d6e1da25e6b89",
      "contractAddress": null
    }
  ],
  "libraries": [],
  "pending": [],
  "returns": {},
  "timestamp": 1754726929,
  "chain": 11155111,
  "commit": "555bf71"
}