{
  "transactions": [
    {
      "hash": "0xbc3e256dab6e4251ef13e6c6b82889dfbde0ccfdf7dbac6e5d6a4615072b3215",
      "transactionType": "CALL",
      "contractName": null,
      "contractAddress": "0xd306620b7bd17b2cf9833d1f87b71489bc5e59a2",
      "function": "addTokenToWhitelist(address)",
      "arguments": [
        "0xd4696912E308143DbcE647c9c514d63b9b54Effe"
      ],
      "transaction": {
        "from": "0xf5b7320f984651bcb68efe22ba33941eefb6a37f",
        "to": "0xd306620b7bd17b2cf9833d1f87b71489bc5e59a2",
        "gas": "0x1097e",
        "value": "0x0",
        "input": "0xd84c1b38000000000000000000000000d4696912e308143dbce647c9c514d63b9b54effe",
        "nonce": "0xe",
        "chainId": "0xaa36a7"
      },
      "additionalContracts": [],
      "isFixedGasLimit": false
    }
  ],
  "receipts": [
    {
      "status": "0x1",
      "cumulativeGasUsed": "0x1577b9e",
      "logs": [],
      "logsBloom": "0x00000000000000000000000000000000000000000000000000000000000000000000000000000000000000000000000000000000000000000000000000000000000000000000000000000000000000000000000000000000000000000000000000000000000000000000000000000000000000000000000000000000000000000000000000000000000000000000000000000000000000000000000000000000000000000000000000000000000000000000000000000000000000000000000000000000000000000000000000000000000000000000000000000000000000000000000000000000000000000000000000000000000000000000000000000000",
      "type": "0x2",
      "transactionHash": "0xbc3e256dab6e4251ef13e6c6b82889dfbde0ccfdf7dbac6e5d6a4615072b3215",
      "transactionIndex": "0xa8",
      "blockHash": "0xc0f9d100c25aebded97c6b2b7ac01ba3457df66990b162cc46c7d6d1958880ab",
      "blockNumber": "0x886698",
      "gasUsed": "0xb589",
      "effectiveGasPrice": "0xe459dfe",
      "from": "0xf5b7320f984651bcb68efe22ba33941eefb6a37f",
      "to": "0xd306620b7bd17b2cf9833d1f87b71489bc5e59a2",
      "contractAddress": null
    }
  ],
  "libraries": [],
  "pending": [],
  "returns": {},
  "timestamp": 1754650908,
  "chain": 11155111,
  "commit": "555bf71"
}