{
  "transactions": [
    {
      "hash": "0x6ddd8af1d3c8bfef2655d677aaa3f98ef7e05dd7904d7a0d42b5985c398d1ccf",
      "transactionType": "CALL",
      "contractName": null,
      "contractAddress": "0xe98253795bc234cd5111b51492a7d0f7502cf65b",
      "function": "addTokenToWhitelist(address)",
      "arguments": [
        "0xd4696912E308143DbcE647c9c514d63b9b54Effe"
      ],
      "transaction": {
        "from": "0xf5b7320f984651bcb68efe22ba33941eefb6a37f",
        "to": "0xe98253795bc234cd5111b51492a7d0f7502cf65b",
        "gas": "0x1097e",
        "value": "0x0",
        "input": "0xd84c1b38000000000000000000000000d4696912e308143dbce647c9c514d63b9b54effe",
        "nonce": "0x2",
        "chainId": "0xaa36a7"
      },
      "additionalContracts": [],
      "isFixedGasLimit": false
    }
  ],
  "receipts": [
    {
      "status": "0x1",
      "cumulativeGasUsed": "0x11227e0",
      "logs": [],
      "logsBloom": "0x00000000000000000000000000000000000000000000000000000000000000000000000000000000000000000000000000000000000000000000000000000000000000000000000000000000000000000000000000000000000000000000000000000000000000000000000000000000000000000000000000000000000000000000000000000000000000000000000000000000000000000000000000000000000000000000000000000000000000000000000000000000000000000000000000000000000000000000000000000000000000000000000000000000000000000000000000000000000000000000000000000000000000000000000000000000",
      "type": "0x2",
      "transactionHash": "0x6ddd8af1d3c8bfef2655d677aaa3f98ef7e05dd7904d7a0d42b5985c398d1ccf",
      "transactionIndex": "0x85",
      "blockHash": "0xcaa7a21a3ff35a7587259f0b79662eaaa851dbfd0265981c29838b43b88e9e5f",
      "blockNumber": "0x886556",
      "gasUsed": "0xb589",
      "effectiveGasPrice": "0xb4aae6a",
      "from": "0xf5b7320f984651bcb68efe22ba33941eefb6a37f",
      "to": "0xe98253795bc234cd5111b51492a7d0f7502cf65b",
      "contractAddress": null
    }
  ],
  "libraries": [],
  "pending": [],
  "returns": {},
  "timestamp": 1754647034,
  "chain": 11155111,
  "commit": "555bf71"
}